:020000040800F2
:10000000B8060020BD010008C5010008C7010008AE
:10001000C9010008CB010008CD0100080000000064
:10002000000000000000000000000000CF010008F8
:10003000D101000800000000D3010008D50100082C
:10004000D7010008D7010008D7010008D701000830
:10005000D7010008D7010008D7010008D701000820
:10006000D7010008D7010008D7010008D701000810
:10007000D7010008D7010008D7010008D701000800
:10008000D7010008D7010008D701000800000000D0
:10009000000000000000000000000000D701000880
:1000A000D7010008D7010008D7010008D7010008D0
:1000B000D7010008D7010008D7010008D7010008C0
:1000C000D7010008D7010008D7010008D7010008B0
:1000D000D7010008D7010008D7010008D7010008A0
:1000E000D7010008D7010008D70100080000000070
:1000F0000000000000000000000000000000000000
:1001000000000000000000000000000000000000EF
:100110000000000000000000D7010008D70100081F
:1001200000F002F800F03AF80AA090E8000C8244CF
:100130008344AAF10107DA4501D100F02FF8AFF2AC
:10014000090EBAE80F0013F0010F18BFFB1A43F0B5
:1001500001031847A0060000C0060000103A24BFA3
:1001600078C878C1FAD8520724BF30C830C144BF1C
:1001700004680C607047000000230024002500265E
:10018000103A28BF78C1FBD8520728BF30C148BFFA
:100190000B6070471FB51FBD10B510BD00F036F8DD
:1001A0001146FFF7F7FF00F0D9FA00F054F803B456
:1001B000FFF7F2FF03BC00F057F800000948804742
:1001C00009480047FEE7FEE7FEE7FEE7FEE7FEE739
:1001D000FEE7FEE7FEE7FEE704480549054A064B51
:1001E000704700003903000821010008B800002012
:1001F000B8060020B8020020B802002070477047FF
:100200007047000000487047580000207546FFF70F
:10021000F9FFAE4605006946534620F007008546C3
:1002200018B020B5FFF7D8FFBDE820404FF000061A
:100230004FF000074FF000084FF0000B21F00701CE
:10024000AC46ACE8C009ACE8C009ACE8C009ACE811
:10025000C0098D46704710B50446AFF300802046B4
:10026000BDE81040FFF7A3BF01491820ABBEFEE771
:1002700026000200704710B500F002F810BD000023
:100280000CB50020019000902A48006840F48030AE
:100290002849086000BF2748006800F4003000903B
:1002A0000198401C0190009818B90198B0F5A06F12
:1002B000F1D12048006800F4003010B10120009016
:1002C00001E0002000900098012831D119484068D1
:1002D00018494860084640684860084640684860D9
:1002E0000846406820F47C1048600846406840F4A6
:1002F000981048600846006840F08070086000BFB1
:100300000C48006800F000700028F9D009484068E7
:1003100020F00300074948600846406840F00200AA
:10032000486000BF0348406800F00C000828F9D17D
:100330000CBD00000010024010B51448006840F0E9
:1003400001001249086008464068114908400F49F9
:100350004860084600680F4908400C490860084694
:10036000006820F4802008600846406820F4FE0001
:1003700048604FF41F0088600020C862FFF77BFFD1
:100380004FF000600449086010BD000000100240FA
:100390000000FFF8FFFFF6FE08ED00E000B50346A1
:1003A00098001749C8601748006820F48040154934
:1003B00008600846006840F400500860032000F020
:1003C00063F91048006820F400500E490860980155
:1003D0000B49C8600B48006820F480400949086058
:1003E0000846006840F400500860032000F04CF913
:1003F0000448006820F400500249086000BD000075
:10040000001001400C0C014000B500F029F8114823
:10041000806940F018000F4988614FF04C500E4938
:1004200008603320486000050C4908600220FFF78F
:10043000B5FF2820FFF7B2FF0E20FFF7AFFF062021
:10044000FFF7ACFF0120FFF7A9FF8020FFF7A6FF11
:1004500000BD00000010024000100140040C0140EB
:100460000348C06940F010000149C86170470000AE
:100470000010024000B518211B2000F02DF81821B3
:100480001C2000F029F84FF08A4003490860034817
:100490000349086000BD00000C0000203333834195
:1004A0001000002001460B4A128842F04002094B1E
:1004B0001A801A46918100BF064A128902F0800212
:1004C000002AF9D1034A9089128822F04002014B98
:1004D0001A8070470030014030B505460C46094887
:1004E000006820F00800074908602846FFF7DAFF97
:1004F0002046FFF7D7FF0348006840F00800014995
:10050000086030BD0C08014030B504460A48006858
:1005100020F00400084908602046FFF7C3FF0020D0
:10052000FFF7C0FF05460448006840F00400024998
:100530000860284630BD00000C08014070B500245A
:1005400011E004F18901C8B2FFF7DEFF064604F1AD
:100550008801C8B2FFF7D8FF054605EB06200E4913
:1005600021F81400641C032CEBDB002411E004F1DF
:100570008F01C8B2FFF7C8FF064604F18E01C8B26A
:10058000FFF7C2FF054605EB0620044921F81400D9
:10059000641C092CEBDB70BD00000020140000205F
:1005A00000B50120FFF7FAFE00BD000000B50346CC
:1005B00098001749C8601748006840F48040154902
:1005C00008600846006840F400500860032000F00E
:1005D0005BF81048006820F400500E49086098014C
:1005E0000B49C8600B48006840F480400949086026
:1005F0000846006840F400500860032000F044F80A
:100600000448006820F400500249086000BD000062
:10061000001001400C0C014030B50446002503E0F9
:10062000605DFFF7C3FF6D1C605D0028F8D130BD31
:10063000FFB50446002C03DA64422D20FFF7B6FF15
:100640000025264603E06D1C0A2096FBF0F6002EDE
:10065000F9D100200EE00A2194FBF1F201FB1247D0
:1006600094FBF1F407F13001CAB2411C691A0DF88C
:100670000120401CA842EEDB00200DF80500684672
:10068000FFF7CAFFFFBD000045F6BF51074A1185BD
:1006900090850D21118000BF0449098A01F00101F4
:1006A0000029F9D00021014A118270470010004052
:1006B0002748806941F2040108432549886125489B
:1006C000008840F03800234908800846008840F040
:1006D000040008800846008840F40070088008463E
:1006E000008840F4807008800846808840F004004C
:1006F00088800020184908604FF4300008600846E0
:10070000006840F0304008600846006840F0306003
:1007100008600846006840F44030086008460068F9
:1007200040F4405008600846006840F4407008609B
:1007300009480C30006840F00C0007490C31086093
:100740000448008840F040000249088070470000DB
:10075000001002400030014000080140FFF754FE45
:10076000FFF71EFF1CA0FFF757FF4FF47A70FFF74B
:100770008BFFFFF79DFF6420FFF786FFFFF77AFEF0
:10078000FFF70EFF16A0FFF747FF4FF47A70FFF751
:100790007BFF1FE0FFF7D2FEFFF702FF1449088836
:1007A000FFF746FF4FF47A70FFF76EFFFFF7F8FE92
:1007B0000F494888FFF73CFF4FF47A70FFF764FF5A
:1007C000FFF7EEFE0A498888FFF732FF4FF47A7090
:1007D000FFF75AFFDEE700005350493132000000B6
:1007E0006D70752063616C696272617465000000F0
:1007F000140000201408000800000020140000006D
:100800005C0100082808000814000020A40600006D
:100810007801000800000000000000000000000057
:080820000000000000000000D0
:04000005080001BD31
:00000001FF
